:020000040800F2
:1000000000280020650E0008090E00080F0E0008E9
:10001000150E00081B0E0008210E0008000000004D
:10002000000000000000000000000000270E000893
:10003000330E0008000000003F0E00084B0E0008C1
:10004000AD0E0008AD0E0008AD0E0008AD0E0008A4
:10005000AD0E0008AD0E0008AD0E0008AD0E000894
:10006000AD0E0008AD0E0008AD0E0008AD0E000884
:10007000AD0E0008AD0E0008AD0E0008AD0E000874
:10008000AD0E0008AD0E0008AD0E0008AD0E000864
:10009000AD0E0008AD0E0008AD0E0008AD0E000854
:1000A000AD0E0008AD0E0008AD0E0008AD0E000844
:1000B000AD0E0008AD0E000800000000AD0E0008F7
:1000C000AD0E00080000000000000000AD0E0008AA
:1000D00000000000AD0E0008AD0E0008000000009A
:1000E000AD0E0008AD0E0008AD0E000800000000C7
:1000F0000000000000000000000000000000000000
:0C01000000000000000000005FF808F1A3
:10010C0010B5054C237833B9044B13B10448AFF345
:10011C0000800123237010BD0C00002000000000A3
:10012C00B81C000808B5034B1BB103490348AFF3D7
:10013C00008008BD0000000010000020B81C000862
:10014C0080B582B000AF7860C7F800C07B68092B1F
:10015C0000F2808101A252F823F000BF9101000847
:10016C00D90100082102000869020008B102000848
:10017C00F90200084103000889030008D1030008B4
:10018C001904000800220121C64801F06FF9002271
:10019C000221C44801F06AF900220421C14801F08F
:1001AC0065F900220821BF4801F060F900221021F6
:1001BC00BC4801F05BF900222021BA4801F056F945
:1001CC0001224021B74801F051F967E101220121D8
:1001DC00B44801F04BF901220821B24801F046F96C
:1001EC0001221021AF4801F041F901222021AD4834
:1001FC0001F03CF901224021AA4801F037F9002214
:10020C000221A84801F032F900220421A54801F08E
:10021C002DF943E101220421A24801F027F9012222
:10022C002021A04801F022F9002201219D4801F073
:10023C001DF9002202219B4801F018F90022082127
:10024C00984801F013F900221021964801F00EF99C
:10025C0000224021934801F009F91FE101221021ED
:10026C00904801F003F9012220218E4801F0FEF89C
:10027C00002204218B4801F0F9F800220121894861
:10028C0001F0F4F800220221864801F0EFF8002278
:10029C000821844801F0EAF800224021814801F04D
:1002AC00E5F8FBE0002220217E4801F0DFF8002277
:1002BC0040217C4801F0DAF800220221794801F053
:1002CC00D5F800220421774801F0D0F80122012151
:1002DC00744801F0CBF801220821724801F0C6F8ED
:1002EC00012210216F4801F0C1F8D7E00022012152
:1002FC006C4801F0BBF8002208216A4801F0B6F8FE
:10030C0000222021674801F0B1F800224021654805
:10031C0001F0ACF800220421624801F0A7F8012298
:10032C000221604801F0A2F8012210215D4801F081
:10033C009DF8B3E0002210215A4801F097F80022F2
:10034C000121584801F092F800220821554801F08B
:10035C008DF800222021534801F088F8002240211A
:10036C00504801F083F8002204214E4801F07EF839
:10037C00012202214B4801F079F88FE00122102173
:10038C00484801F073F801222021464801F06EF82C
:10039C0001220821434801F069F80122402141481B
:1003AC0001F064F8002202213E4801F05FF80022BF
:1003BC0001213C4801F05AF800220421394801F08F
:1003CC0055F86BE000221021364801F04FF800225E
:1003DC002021344801F04AF800220821314801F06C
:1003EC0045F8002240212F4801F040F8002201215D
:1003FC002C4801F03BF8002202212A4801F036F883
:10040C0000220421274801F031F847E00122102195
:10041C00244801F02BF800220121224801F026F893
:10042C00002202211F4801F021F8002204211D485E
:10043C0001F01CF8002208211A4801F017F80022DC
:10044C004021184801F012F800222021154801F033
:10045C000DF823E001220121124801F007F80122D6
:10046C000221104801F002F8012204210D4800F08D
:10047C00FDFF012208210B4800F0F8FF012210219A
:10048C00084800F0F3FF01222021064800F0EEFF9F
:10049C0001224021034800F0E9FF00BF00BF0837EC
:1004AC00BD4680BD000C014080B588B000AF07F19F
:1004BC0028037B6000F0F6FC00F0D6FB00F010FC8B
:1004CC000023FB610023BB6100237B610A233B619A
:1004DC000723FB600323BB60FB69002B04D0FB6983
:1004EC00012B00F0DE80BCE17B69002B08D1BA69DE
:1004FC00FB689A4204DB01237B610023BB6116E09D
:10050C007B69012B08D1BA69BB689A4204DB0223D0
:10051C007B610023BB610AE07B69022B07D1BA69BE
:10052C003B699A4203DB00237B610023BB617B693F
:10053C00002B36D1BA69FB689A4232DA01220821C3
:10054C009F4800F093FF01224FF400719C4800F08B
:10055C008DFF002202219A4800F088FF00228021A2
:10056C00974800F083FF01221021954800F07EFF90
:10057C0001224FF48061924800F078FFFA68BB6961
:10058C00D31A013B3A1D94461846FFF7D9FD3A6938
:10059C00BB69D31A013B3A1D9446184600F06CF91E
:1005AC007EE07B69012B2ED1BA69BB689A422ADAAC
:1005BC0001220421824800F059FF01224FF480717E
:1005CC007F4800F053FF002208217D4800F04EFFC9
:1005DC0000224FF400717A4800F048FFBA68BB69FA
:1005EC00D31A013B3A1D94461846FFF7A9FD3A6908
:1005FC00FB68D21ABB69D31A013B3A1D94461846C4
:10060C0000F03AF94CE07B69022B40F02781BA6983
:10061C003B699A4280F2228100220421684800F052
:10062C0025FF00224FF48071654800F01FFF012266
:10063C000221634800F01AFF01228021604800F07B
:10064C0015FF012240215E4800F010FF01224FF4FB
:10065C0080515B4800F00AFF00221021584800F03E
:10066C0005FF00224FF48061554800F0FFFE3A6907
:10067C00BB69D31A013B3A1D94461846FFF760FD3F
:10068C00FA68BB69D31A013B3A1D9446184600F030
:10069C00F3F80123FB610023BB6100237B61DDE0E8
:1006AC00DCE07B69002B08D1BA69FB689A4204DB59
:1006BC0001237B610023BB6116E07B69012B08D110
:1006CC00BA69BB689A4204DB02237B610023BB61DD
:1006DC000AE07B69022B07D1BA693B699A4203DBBA
:1006EC0000237B610023BB617B69002B36D1BA6987
:1006FC00FB689A4232DA00221021314800F0B6FE33
:10070C0000224FF480612E4800F0B0FE01224021FF
:10071C002B4800F0ABFE01224FF48051284800F02A
:10072C00A5FE01220221264800F0A0FE0122802114
:10073C00234800F09BFE3A69BB69D31A013B3A1D72
:10074C0094461846FFF7FCFCFA68BB69D31A013BC8
:10075C003A1D9446184600F08FF87EE07B69012B19
:10076C0030D1BA69BB689A422CDA00224021144875
:10077C0000F07CFE00224FF48051114800F076FE10
:10078C00012220210E4800F071FE01224FF400617D
:10079C000B4800F06BFEBA68BB69D31A013B3A1DDB
:1007AC009446184600F068F83A69FB68D21ABB699F
:1007BC00D31A013B3A1D94461846FFF7C1FC4CE096
:1007CC00000801407B69022B4AD1BA693B699A4205
:1007DC0046DA00222021274800F048FE00224FF480
:1007EC000061244800F042FE01221021214800F053
:1007FC003DFE01224FF480611E4800F037FE0122BD
:10080C0008211C4800F032FE01224FF400711948F7
:10081C0000F02CFE00220221164800F027FE0022D8
:10082C008021144800F022FEFA68BB69D31A013B00
:10083C003A1D94461846FFF783FC3A69BB69D31AF4
:10084C00013B3A1D9446184600F016F80023FB6154
:10085C000023BB6100237B6102E001E000BF00E0EC
:10086C0000BFBB690133BB614FF47A7000F07CFBB5
:10087C0032E600BF0008014080B582B000AF78605E
:10088C00C7F800C07B68092B00F2BE8101A252F8A8
:10089C0023F000BFC90800081D09000871090008F1
:1008AC00C5090008190A00086D0A0008C10A0008E9
:1008BC00150B0008690B0008BD0B000800228021F5
:1008CC00D04800F0D3FD00224FF48071CD4800F0E9
:1008DC00CDFD00224FF40071CA4800F0C7FD002284
:1008EC004FF48061C74800F0C1FD00224FF4006155
:1008FC00C44800F0BBFD00224FF48051C14800F009
:10090C00B5FD01224FF40051BE4800F0AFFDA5E14A
:10091C0001228021BB4800F0A9FD01224FF4806127
:10092C00B84800F0A3FD01224FF40061B54800F077
:10093C009DFD01224FF48051B24800F097FD012239
:10094C004FF40051AF4800F091FD00224FF480713C
:10095C00AC4800F08BFD00224FF40071A94800F068
:10096C0085FD7BE101224FF40071A64800F07EFD6D
:10097C0001224FF48051A34800F078FD0022802121
:10098C00A04800F073FD00224FF480719D4800F0E8
:10099C006DFD00224FF480619A4800F067FD002243
:1009AC004FF40061974800F061FD00224FF40051B4
:1009BC00944800F05BFD51E101224FF40061914835
:1009CC0000F054FD01224FF480518E4800F04EFD92
:1009DC0000224FF400718B4800F048FD002280216A
:1009EC00884800F043FD00224FF48071854800F0E8
:1009FC003DFD00224FF48061824800F037FD00225B
:100A0C004FF400517F4800F031FD27E100224FF4F4
:100A1C0080517C4800F02AFD00224FF400517948A7
:100A2C0000F024FD00224FF48071764800F01EFD8A
:100A3C0000224FF40071734800F018FD0122802150
:100A4C00704800F013FD01224FF480616D4800F0F6
:100A5C000DFD01224FF400616A4800F007FDFDE036
:100A6C0000228021674800F001FD00224FF48061D4
:100A7C00644800F0FBFC00224FF48051614800F008
:100A8C00F5FC00224FF400515E4800F0EFFC002210
:100A9C004FF400715B4800F0E9FC01224FF48071C7
:100AAC00584800F0E3FC01224FF40061554800F077
:100ABC00DDFCD3E000224FF40061524800F0D6FC7C
:100ACC00002280214F4800F0D1FC00224FF48061BD
:100ADC004C4800F0CBFC00224FF48051494800F008
:100AEC00C5FC00224FF40051464800F0BFFC002228
:100AFC004FF40071434800F0B9FC01224FF48071AF
:100B0C00404800F0B3FCA9E001224FF400613D48DD
:100B1C0000F0ACFC01224FF480513A4800F0A6FCE6
:100B2C0001224FF48061374800F0A0FC01224FF401
:100B3C000051344800F09AFC00224FF48071314887
:100B4C0000F094FC002280212E4800F08FFC002243
:100B5C004FF400712B4800F089FC7FE000224FF429
:100B6C000061284800F082FC00224FF48051254897
:100B7C0000F07CFC00224FF48061224800F076FCEF
:100B8C0000224FF400511F4800F070FC002280211D
:100B9C001C4800F06BFC00224FF48071194800F0E7
:100BAC0065FC00224FF40071164800F05FFC55E024
:100BBC0001224FF40061134800F058FC0022802100
:100BCC00104800F053FC00224FF480710D4800F0E7
:100BDC004DFC00224FF400710A4800F047FC002243
:100BEC004FF48061074800F041FC00224FF40051A3
:100BFC00044800F03BFC00224FF48051014800F007
:100C0C0035FC2BE0000C014001228021154800F03E
:100C1C002DFC01224FF48071124800F027FC0122B8
:100C2C004FF400710F4800F021FC01224FF4806159
:100C3C000C4800F01BFC01224FF40061094800F045
:100C4C0015FC01224FF48051064800F00FFC0122E4
:100C5C004FF40051034800F009FC00BF00BF0837F7
:100C6C00BD4680BD000C014080B590B000AF07F1CF
:100C7C00180328220021184601F010F83B1D002211
:100C8C001A605A609A60DA601A610223BB61012310
:100C9C00BB621023FB6200237B6307F11803184629
:100CAC0000F0FCFB0346002B01D000F06FF80F2383
:100CBC007B600023BB600023FB6000233B610023AF
:100CCC007B613B1D0021184600F068FE0346002B9B
:100CDC0001D000F05BF800BF4037BD4680BD00007E
:100CEC0080B586B000AF07F1080300221A605A6085
:100CFC009A60DA60224B9B69214A43F004039361AA
:100D0C001F4B9B6903F004037B607B681C4B9B6946
:100D1C001B4A43F008039361194B9B6903F00803CA
:100D2C003B603B68002241F6FE71164800F09EFBCA
:100D3C00002243F6FF71144800F098FB41F6FE7355
:100D4C00BB600123FB6000233B6102237B6107F145
:100D5C00080319460B4800F00FFA43F6FF73BB600B
:100D6C000123FB6000233B6102237B6107F1080335
:100D7C001946054800F000FA00BF1837BD4680BD83
:100D8C000010024000080140000C014080B400AF8C
:100D9C0072B600BFFEE7000080B485B000AF154B03
:100DAC009B69144A43F001039361124B9B6903F056
:100DBC000103BB60BB680F4BDB690E4A43F08053E9
:100DCC00D3610C4BDB6903F080537B607B680A4B6F
:100DDC005B68FB60FB6823F0E063FB60FB6843F03F
:100DEC008063FB60044AFB68536000BF1437BD4648
:100DFC0080BC7047001002400000014080B400AF7E
:100E0C00FEE780B400AFFEE780B400AFFEE780B42D
:100E1C0000AFFEE780B400AFFEE780B400AF00BFC8
:100E2C00BD4680BC704780B400AF00BFBD4680BCDF
:100E3C00704780B400AF00BFBD4680BC704780B522
:100E4C0000AF00F075F800BF80BD80B400AF00BFEC
:100E5C00BD4680BC70470000FFF7F7FF0B480C49FC
:100E6C000C4A002302E0D458C4500433C4188C42FA
:100E7C00F9D3094A094C002301E013600432A24261
:100E8C00FBD300F0E7FEFFF70FFB704700000020DC
:100E9C000C000020FC1C00080C0000202C00002082
:100EAC00FEE7000080B500AF084B1B68074A43F013
:100EBC0010031360032000F02BF90F2000F008F84A
:100ECC00FFF76AFF0023184680BD00BF00200240D8
:100EDC0080B582B000AF7860124B1A68124B1B7849
:100EEC0019464FF47A73B3FBF1F3B2FBF3F31846E4
:100EFC0000F035F90346002B01D001230EE07B688E
:100F0C000F2B0AD8002279684FF0FF3000F00BF954
:100F1C00064A7B681360002300E00123184608375B
:100F2C00BD4680BD00000020080000200400002009
:100F3C0080B400AF054B1B781A46054B1B68134455
:100F4C00034A136000BFBD4680BC704708000020F8
:100F5C002800002080B400AF024B1B681846BD4629
:100F6C0080BC70472800002080B584B000AF78604A
:100F7C00FFF7F0FFB8607B68FB60FB68B3F1FF3FE5
:100F8C0005D00A4B1B781A46FB681344FB6000BF64
:100F9C00FFF7E0FF0246BB68D31AFA689A42F7D80B
:100FAC0000BF00BF1037BD4680BD00BF0800002049
:100FBC0080B485B000AF78607B6803F00703FB60FA
:100FCC000C4BDB68BB60BA684FF6FF031340BB6089
:100FDC00FB681A02BB68134343F0BF6343F400334E
:100FEC00BB60044ABB68D36000BF1437BD4680BCED
:100FFC00704700BF00ED00E080B400AF044BDB682D
:10100C001B0A03F007031846BD4680BC704700BF9F
:10101C0000ED00E080B483B000AF03463960FB7193
:10102C0097F90730002B0ADB3B68DAB20C4997F9C9
:10103C0007301201D2B20B4483F800230AE03B685C
:10104C00DAB20849FB7903F00F03043B1201D2B268
:10105C000B441A7600BF0C37BD4680BC704700BFEE
:10106C0000E100E000ED00E080B489B000AFF86072
:10107C00B9607A60FB6803F00703FB61FB69C3F19D
:10108C000703042B28BF0423BB61FB690433062B25
:10109C0002D9FB69033B00E000237B614FF0FF3278
:1010AC00BB6902FA03F3DA43BB681A407B699A40C6
:1010BC004FF0FF317B6901FA03F3D9437B680B4096
:1010CC00134318462437BD4680BC704780B582B0A8
:1010DC0000AF78607B68013BB3F1807F01D30123C3
:1010EC000FE00A4A7B68013B53600F214FF0FF3041
:1010FC00FFF790FF054B00229A60044B07221A6001
:10110C00002318460837BD4680BD00BF10E000E044
:10111C0080B582B000AF78607868FFF749FF00BFF8
:10112C000837BD4680BD80B586B000AF0346B960B8
:10113C007A60FB7300237B61FFF75EFF78617A684E
:10114C00B9687869FFF790FF024697F90F3011469E
:10115C001846FFF75FFF00BF1837BD4680BD80B54E
:10116C0082B000AF78607868FFF7B0FF034618468E
:10117C000837BD4680BD000080B48BB000AF7860EE
:10118C00396000237B6200233B6248E101227B6AC9
:10119C0002FA03F3FB613B681B68FA691340BB61FD
:1011AC00BA69FB699A4240F037813B685B68A34A95
:1011BC0093425ED0A14A934275D8A14A934258D02B
:1011CC009F4A93426FD89F4A934252D09D4A934272
:1011DC0069D89D4A93424CD09B4A934263D89B4A10
:1011EC00934246D0994A93425DD8122B2AD8122B9F
:1011FC0059D801A252F823F07F12000859120008A6
:10120C006B120008AD120008B3120008B3120008EC
:10121C00B3120008B3120008B3120008B31200088E
:10122C00B3120008B3120008B3120008B31200087E
:10123C00B3120008B3120008B312000861120008C0
:10124C0075120008824A934213D02CE03B68DB688D
:10125C003B6229E03B68DB6804333B6224E03B687B
:10126C00DB6808333B621FE03B68DB680C333B6296
:10127C001AE03B689B68002B02D104233B6213E00D
:10128C003B689B68012B05D108233B627B68FA699C
:10129C001A6109E008233B627B68FA695A6103E032
:1012AC0000233B6200E000BFBB69FF2B01D87B68C9
:1012BC0001E07B6804337B61BB69FF2B02D87B6A3E
:1012CC009B0002E07B6A083B9B003B617B691A68D0
:1012DC000F213B6901FA03F3DB431A40396A3B697E
:1012EC0001FA03F31A437B691A603B685B6803F0ED
:1012FC008053002B00F09080564B9B69554A43F06D
:10130C0001039361534B9B6903F00103BB60BB6802
:10131C00514A7B6A9B08023352F82330FB607B6A8C
:10132C0003F003039B000F2202FA03F3DB43FA687A
:10133C001340FB607B68494A93420DD07B68484A56
:10134C00934207D07B68474A934201D1022304E0C1
:10135C00032302E0012300E000237A6A02F0030277
:10136C0092009340FA681343FB603B497B6A9B08ED
:10137C000233FA6841F823203B685B6803F480135E
:10138C00002B06D0384B9A683749BB6913438B60E6
:10139C0006E0354B9A68BB69DB43334913408B60DD
:1013AC003B685B6803F40013002B06D02E4BDA6805
:1013BC002D49BB691343CB6006E02B4BDA68BB6944
:1013CC00DB4329491340CB603B685B6803F4003373
:1013DC00002B06D0244B5A682349BB6913434B603E
:1013EC0006E0214B5A68BB69DB431F4913404B6035
:1013FC003B685B6803F48033002B06D01A4B1A68E9
:10140C001949BB6913430B6006E0174B1A68BB699B
:10141C00DB43154913400B607B6A01337B623B68ED
:10142C001A687B6A22FA03F3002B7FF4AFAE00BF7D
:10143C0000BF2C37BD4680BC704700BF0000321087
:10144C0000003110000022100000211000001210CA
:10145C000000111000100240000001400008014083
:10146C00000C0140001001400004014080B483B026
:10147C0000AF78600B467B8013467B707B78002B2B
:10148C0003D07A887B681A6103E07B881A047B6836
:10149C001A6100BF0C37BD4680BC704780B586B062
:1014AC0000AF78607B68002B01D101236CE27B6874
:1014BC001B6803F00103002B00F08780924B5B68E4
:1014CC0003F00C03042B0CD08F4B5B6803F00C0364
:1014DC00082B12D18C4B5B6803F48033B3F5803F3F
:1014EC000BD1894B1B6803F40033002B6CD07B6849
:1014FC005B68002B68D1012346E27B685B68B3F51F
:10150C00803F06D1804B1B687F4A43F480331360C5
:10151C002EE07B685B68002B0CD17B4B1B687A4AF6
:10152C0023F480331360784B1B68774A23F48023B1
:10153C0013601DE07B685B68B3F5A02F0CD1724B78
:10154C001B68714A43F4802313606F4B1B686E4A0F
:10155C0043F4803313600BE06B4B1B686A4A23F433
:10156C0080331360684B1B68674A23F48023136035
:10157C007B685B68002B13D0FFF7ECFC386108E04C
:10158C00FFF7E8FC02463B69D31A642B01D903230D
:10159C00FAE15D4B1B6803F40033002BF0D014E030
:1015AC00FFF7D8FC386108E0FFF7D4FC02463B6932
:1015BC00D31A642B01D90323E6E1534B1B6803F4C4
:1015CC000033002BF0D100E000BF7B681B6803F0F8
:1015DC000203002B63D04C4B5B6803F00C03002B15
:1015EC000BD0494B5B6803F00C03082B1CD1464B0A
:1015FC005B6803F48033002B16D1434B1B6803F05C
:10160C000203002B05D07B681B69012B01D0012341
:10161C00BAE13D4B1B6823F0F8027B685B69DB0089
:10162C00394913430B603AE07B681B69002B20D0CF
:10163C00364B01221A60FFF78DFC386108E0FFF78A
:10164C0089FC02463B69D31A022B01D903239BE187
:10165C002D4B1B6803F00203002BF0D02A4B1B68A8
:10166C0023F0F8027B685B69DB00274913430B60AE
:10167C0015E0264B00221A60FFF76CFC386108E07D
:10168C00FFF768FC02463B69D31A022B01D90323EE
:10169C007AE11D4B1B6803F00203002BF0D17B6831
:1016AC001B6803F00803002B3AD07B689B69002B66
:1016BC0019D0174B01221A60FFF74CFC386108E077
:1016CC00FFF748FC02463B69D31A022B01D90323CE
:1016DC005AE10D4B5B6A03F00203002BF0D00120A2
:1016EC0000F09AFA1CE00A4B00221A60FFF732FC59
:1016FC0038610FE0FFF72EFC02463B69D31A022B30
:10170C0008D9032340E100BF001002400000424210
:10171C00800442429E4B5B6A03F00203002BE9D12A
:10172C007B681B6803F00403002B00F0A6800023E9
:10173C00FB75974BDB6903F08053002B0DD1944B59
:10174C00DB69934A43F08053D361914BDB6903F01F
:10175C008053BB60BB680123FB758E4B1B6803F485
:10176C008073002B18D18B4B1B688A4A43F480730F
:10177C001360FFF7EFFB386108E0FFF7EBFB024665
:10178C003B69D31A642B01D90323FDE0814B1B6801
:10179C0003F48073002BF0D07B68DB68012B06D13F
:1017AC007B4B1B6A7A4A43F0010313622DE07B6882
:1017BC00DB68002B0CD1764B1B6A754A23F00103B6
:1017CC001362734B1B6A724A23F0040313621CE00E
:1017DC007B68DB68052B0CD16D4B1B6A6C4A43F0A4
:1017EC00040313626A4B1B6A694A43F001031362D8
:1017FC000BE0674B1B6A664A23F001031362644BD0
:10180C001B6A634A23F0040313627B68DB68002BBA
:10181C0015D0FFF79FFB38610AE0FFF79BFB0246F0
:10182C003B69D31A41F28832934201D90323ABE0CE
:10183C00574B1B6A03F00203002BEED014E0FFF7AA
:10184C0089FB38610AE0FFF785FB02463B69D31A36
:10185C0041F28832934201D9032395E04C4B1B6A29
:10186C0003F00203002BEED1FB7D012B05D1484B7D
:10187C00DB69474A23F08053D3617B68DB69002B1B
:10188C0000F08180424B5B6803F00C03082B61D0A5
:10189C007B68DB69022B46D13F4B00221A60FFF7B5
:1018AC0059FB386108E0FFF755FB02463B69D31A38
:1018BC00022B01D9032367E0354B1B6803F000733F
:1018CC00002BF0D17B681B6AB3F5803F08D1304BFD
:1018DC005B6823F400327B689B682D4913434B6093
:1018EC002B4B5B6823F474127B68196A7B685B6A08
:1018FC000B43274913434B60274B01221A60FFF718
:10190C0029FB386108E0FFF725FB02463B69D31A37
:10191C00022B01D9032337E01D4B1B6803F0007326
:10192C00002BF0D02FE01C4B00221A60FFF712FBAB
:10193C00386108E0FFF70EFB02463B69D31A022B15
:10194C0001D9032320E0124B1B6803F00073002B1A
:10195C00F0D118E07B68DB69012B01D1012313E086
:10196C000B4B5B68FB60FB6803F480327B681B6A83
:10197C009A4206D1FB6803F470127B685B6A9A4248
:10198C0001D0012300E0002318461837BD4680BD66
:10199C0000100240007000406000424280B584B0EC
:1019AC0000AF786039607B68002B01D10123D0E057
:1019BC006A4B1B6803F007033A689A4210D9674BCD
:1019CC001B6823F0070265493B6813430B60634BAC
:1019DC001B6803F007033A689A4201D00123B8E070
:1019EC007B681B6803F00203002B20D07B681B680C
:1019FC0003F00403002B05D0594B5B68584A43F4A1
:101A0C00E06353607B681B6803F00803002B05D070
:101A1C00534B5B68524A43F460535360504B5B68C2
:101A2C0023F0F0027B689B684D4913434B607B6845
:101A3C001B6803F00103002B40D07B685B68012B13
:101A4C0007D1474B1B6803F40033002B15D101233E
:101A5C007FE07B685B68022B07D1414B1B6803F06E
:101A6C000073002B09D1012373E03D4B1B6803F07D
:101A7C000203002B01D101236BE0394B5B6823F08F
:101A8C0003027B685B68364913434B60FFF762FACD
:101A9C00F8600AE0FFF75EFA0246FB68D31A41F2DF
:101AAC008832934201D9032353E02D4B5B6803F03A
:101ABC000C027B685B689B009A42EBD1274B1B683E
:101ACC0003F007033A689A4210D2244B1B6823F0A8
:101ADC00070222493B6813430B60204B1B6803F041
:101AEC0007033A689A4201D0012332E07B681B68F5
:101AFC0003F00403002B08D0194B5B6823F4E0625D
:101B0C007B68DB68164913434B607B681B6803F0EA
:101B1C000803002B09D0124B5B6823F460527B68DE
:101B2C001B69DB000E4913434B6000F021F80246A1
:101B3C000B4B5B681B0903F00F030A49CB5C22FAC1
:101B4C0003F3094A1360094B1B681846FFF7C0F9E9
:101B5C00002318461037BD4680BD00BF0020024050
:101B6C0000100240D01C00080000002004000020DF
:101B7C0080B487B000AF0023FB600023BB60002360
:101B8C007B6100237B6000233B611E4B5B68FB6029
:101B9C00FB6803F00C03042B02D0082B03D027E0C6
:101BAC00194B3B6127E0FB689B0C03F00F03174AB2
:101BBC00D35C7B60FB6803F48033002B10D0114B9B
:101BCC005B685B0C03F00103114AD35CBB607B6860
:101BDC000D4A02FB03F2BB68B2FBF3F37B6104E03A
:101BEC007B680C4A02FB03F37B617B693B6102E07F
:101BFC00054B3B6100BF3B6918461C37BD4680BC9A
:101C0C00704700BF0010024000127A00E01C000870
:101C1C00F01C000800093D0080B485B000AF78606E
:101C2C000A4B1B680A4AA2FB03235B0A7A6802FB75
:101C3C0003F3FB6000BFFB685A1EFA60002BF9D15E
:101C4C0000BF00BF1437BD4680BC704700000020A9
:101C5C00D34D621070B500260C4D0D4C641BA410B6
:101C6C00A64209D100F022F800260A4D0A4C641B4A
:101C7C00A410A64205D170BD55F8043B9847013617
:101C8C00EEE755F8043B98470136F2E7F41C0008E0
:101C9C00F41C0008F41C0008F81C0008034602445D
:101CAC00934200D1704703F8011BF9E7F8B500BF68
:101CBC00F8BC08BC9E467047F8B500BFF8BC08BC21
:041CCC009E46704779
:101CD00000000000000000000102030406070809DC
:101CE00002030405060708090A0B0C0D0E0F10105D
:041CF00001020000ED
:041CF40031010008B2
:041CF8000D010008D2
:0C1CFC0000127A0010000000010000003F
:0400000508000E657C
:00000001FF
